{
  "contractName": "Game",
  "abi": [
    {
      "inputs": [],
      "stateMutability": "nonpayable",
      "type": "constructor"
    },
    {
      "anonymous": false,
      "inputs": [
        {
          "indexed": false,
          "internalType": "uint8",
          "name": "luckyNumber",
          "type": "uint8"
        },
        {
          "indexed": false,
          "internalType": "uint256",
          "name": "totalBetAmount",
          "type": "uint256"
        },
        {
          "indexed": false,
          "internalType": "uint256",
          "name": "winners",
          "type": "uint256"
        },
        {
          "indexed": false,
          "internalType": "uint256",
          "name": "share",
          "type": "uint256"
        }
      ],
      "name": "GameResult",
      "type": "event"
    },
    {
      "anonymous": false,
      "inputs": [
        {
          "indexed": false,
          "internalType": "uint256[4]",
          "name": "betStats",
          "type": "uint256[4]"
        }
      ],
      "name": "GameStats",
      "type": "event"
    },
    {
      "anonymous": false,
      "inputs": [
        {
          "indexed": true,
          "internalType": "address",
          "name": "player",
          "type": "address"
        },
        {
          "indexed": false,
          "internalType": "uint256",
          "name": "amount",
          "type": "uint256"
        },
        {
          "indexed": false,
          "internalType": "uint8",
          "name": "number",
          "type": "uint8"
        },
        {
          "indexed": false,
          "internalType": "uint256",
          "name": "noOfbets",
          "type": "uint256"
        }
      ],
      "name": "NewBet",
      "type": "event"
    },
    {
      "inputs": [
        {
          "internalType": "address",
          "name": "",
          "type": "address"
        }
      ],
      "name": "bets",
      "outputs": [
        {
          "internalType": "uint256",
          "name": "amount",
          "type": "uint256"
        },
        {
          "internalType": "uint8",
          "name": "number",
          "type": "uint8"
        }
      ],
      "stateMutability": "view",
      "type": "function",
      "constant": true
    },
    {
      "inputs": [],
      "name": "luckyNumber",
      "outputs": [
        {
          "internalType": "uint8",
          "name": "",
          "type": "uint8"
        }
      ],
      "stateMutability": "view",
      "type": "function",
      "constant": true
    },
    {
      "inputs": [],
      "name": "owner",
      "outputs": [
        {
          "internalType": "address",
          "name": "",
          "type": "address"
        }
      ],
      "stateMutability": "view",
      "type": "function",
      "constant": true
    },
    {
      "inputs": [
        {
          "internalType": "uint256",
          "name": "",
          "type": "uint256"
        }
      ],
      "name": "playerList",
      "outputs": [
        {
          "internalType": "address",
          "name": "",
          "type": "address"
        }
      ],
      "stateMutability": "view",
      "type": "function",
      "constant": true
    },
    {
      "inputs": [],
      "name": "totalBetAmount",
      "outputs": [
        {
          "internalType": "uint256",
          "name": "",
          "type": "uint256"
        }
      ],
      "stateMutability": "view",
      "type": "function",
      "constant": true
    },
    {
      "inputs": [
        {
          "internalType": "uint8",
          "name": "_number",
          "type": "uint8"
        }
      ],
      "name": "addBet",
      "outputs": [],
      "stateMutability": "payable",
      "type": "function",
      "payable": true
    },
    {
      "inputs": [],
      "name": "generateNumber",
      "outputs": [],
      "stateMutability": "nonpayable",
      "type": "function"
    },
    {
      "inputs": [],
      "name": "withdraw",
      "outputs": [],
      "stateMutability": "nonpayable",
      "type": "function"
    }
  ],
  "bytecode": "0x60806040526000600355600060055534801561001a57600080fd5b5033600460006101000a81548173ffffffffffffffffffffffffffffffffffffffff021916908373ffffffffffffffffffffffffffffffffffffffff1602179055506110698061006b6000396000f3fe60806040526004361061007b5760003560e01c806389a78f1a1161004e57806389a78f1a146100f55780638da5cb5b14610133578063ae6d90731461015e578063bf205ebc1461019b5761007b565b8063145b0563146100805780633ccfd60b14610097578063613f4594146100ae57806374061a93146100d9575b600080fd5b34801561008c57600080fd5b506100956101c6565b005b3480156100a357600080fd5b506100ac61055d565b005b3480156100ba57600080fd5b506100c36106a1565b6040516100d09190610cf6565b60405180910390f35b6100f360048036038101906100ee9190610b33565b6106a7565b005b34801561010157600080fd5b5061011c60048036038101906101179190610ae1565b61089a565b60405161012a929190610d11565b60405180910390f35b34801561013f57600080fd5b506101486108cb565b6040516101559190610c7b565b60405180910390f35b34801561016a57600080fd5b5061018560048036038101906101809190610b0a565b6108f1565b6040516101929190610c7b565b60405180910390f35b3480156101a757600080fd5b506101b0610930565b6040516101bd9190610d71565b60405180910390f35b600042905060016004826040516020016101e09190610c60565b6040516020818303038152906040528051906020012060001c6102039190610f5f565b61020d9190610de2565b600260006101000a81548160ff021916908360ff1602179055506000805b6001805490508110156103295760008060018381548110610275577f4e487b7100000000000000000000000000000000000000000000000000000000600052603260045260246000fd5b9060005260206000200160009054906101000a900473ffffffffffffffffffffffffffffffffffffffff1673ffffffffffffffffffffffffffffffffffffffff1673ffffffffffffffffffffffffffffffffffffffff16815260200190815260200160002060010160009054906101000a900460ff1660ff16600260009054906101000a900460ff1660ff16141561031657818061031290610f0c565b9250505b808061032190610f0c565b91505061022b565b506000808211156105025760006064605a6003546103479190610e69565b6103519190610e38565b9050828161035f9190610e38565b915060005b6001805490508110156104ff57600080600183815481106103ae577f4e487b7100000000000000000000000000000000000000000000000000000000600052603260045260246000fd5b9060005260206000200160009054906101000a900473ffffffffffffffffffffffffffffffffffffffff1673ffffffffffffffffffffffffffffffffffffffff1673ffffffffffffffffffffffffffffffffffffffff16815260200190815260200160002060010160009054906101000a900460ff1660ff16600260009054906101000a900460ff1660ff1614156104ec576001818154811061047a577f4e487b7100000000000000000000000000000000000000000000000000000000600052603260045260246000fd5b9060005260206000200160009054906101000a900473ffffffffffffffffffffffffffffffffffffffff1673ffffffffffffffffffffffffffffffffffffffff166108fc849081150290604051600060405180830381858888f193505050501580156104ea573d6000803e3d6000fd5b505b80806104f790610f0c565b915050610364565b50505b7f244f4748bc7f92ef48d8b7ef4404f1560b1f7a960604fd82d1e274a1ffc4954f600260009054906101000a900460ff1660035484846040516105489493929190610d8c565b60405180910390a1610558610943565b505050565b600460009054906101000a900473ffffffffffffffffffffffffffffffffffffffff1673ffffffffffffffffffffffffffffffffffffffff163373ffffffffffffffffffffffffffffffffffffffff16146105ed576040517f08c379a00000000000000000000000000000000000000000000000000000000081526004016105e490610cd6565b60405180910390fd5b600047905060008111610635576040517f08c379a000000000000000000000000000000000000000000000000000000000815260040161062c90610c96565b60405180910390fd5b600460009054906101000a900473ffffffffffffffffffffffffffffffffffffffff1673ffffffffffffffffffffffffffffffffffffffff166108fc829081150290604051600060405180830381858888f1935050505015801561069d573d6000803e3d6000fd5b5050565b60035481565b60008060003373ffffffffffffffffffffffffffffffffffffffff1673ffffffffffffffffffffffffffffffffffffffff168152602001908152602001600020600001541461072b576040517f08c379a000000000000000000000000000000000000000000000000000000000815260040161072290610cb6565b60405180910390fd5b60405180604001604052803481526020018260ff168152506000803373ffffffffffffffffffffffffffffffffffffffff1673ffffffffffffffffffffffffffffffffffffffff1681526020019081526020016000206000820151816000015560208201518160010160006101000a81548160ff021916908360ff1602179055509050506001339080600181540180825580915050600190039060005260206000200160009091909190916101000a81548173ffffffffffffffffffffffffffffffffffffffff021916908373ffffffffffffffffffffffffffffffffffffffff16021790555034600360008282546108249190610de2565b925050819055506005600081548092919061083e90610f0c565b91905055503373ffffffffffffffffffffffffffffffffffffffff167f2faf69b86673507c090653c0450d06c673a7db6ad65fb6256a243787d4a8a81c348360055460405161088f93929190610d3a565b60405180910390a250565b60006020528060005260406000206000915090508060000154908060010160009054906101000a900460ff16905082565b600460009054906101000a900473ffffffffffffffffffffffffffffffffffffffff1681565b6001818154811061090157600080fd5b906000526020600020016000915054906101000a900473ffffffffffffffffffffffffffffffffffffffff1681565b600260009054906101000a900460ff1681565b60005b600180549050811015610a275760008060018381548110610990577f4e487b7100000000000000000000000000000000000000000000000000000000600052603260045260246000fd5b9060005260206000200160009054906101000a900473ffffffffffffffffffffffffffffffffffffffff1673ffffffffffffffffffffffffffffffffffffffff1673ffffffffffffffffffffffffffffffffffffffff1681526020019081526020016000206000808201600090556001820160006101000a81549060ff021916905550508080610a1f90610f0c565b915050610946565b5060016000610a369190610a64565b60006003819055506000600260006101000a81548160ff021916908360ff1602179055506000600581905550565b5080546000825590600052602060002090810190610a829190610a85565b50565b5b80821115610a9e576000816000905550600101610a86565b5090565b600081359050610ab181610fee565b92915050565b600081359050610ac681611005565b92915050565b600081359050610adb8161101c565b92915050565b600060208284031215610af357600080fd5b6000610b0184828501610aa2565b91505092915050565b600060208284031215610b1c57600080fd5b6000610b2a84828501610ab7565b91505092915050565b600060208284031215610b4557600080fd5b6000610b5384828501610acc565b91505092915050565b610b6581610ec3565b82525050565b6000610b78601483610dd1565b91507f4e6f2066756e647320746f2077697468647261770000000000000000000000006000830152602082019050919050565b6000610bb8601d83610dd1565b91507f596f75206861766520616c726561647920706c616365642061206265740000006000830152602082019050919050565b6000610bf8601683610dd1565b91507f4e6f742074686520636f6e7472616374206f776e6572000000000000000000006000830152602082019050919050565b610c3481610ef5565b82525050565b610c4b610c4682610ef5565b610f55565b82525050565b610c5a81610eff565b82525050565b6000610c6c8284610c3a565b60208201915081905092915050565b6000602082019050610c906000830184610b5c565b92915050565b60006020820190508181036000830152610caf81610b6b565b9050919050565b60006020820190508181036000830152610ccf81610bab565b9050919050565b60006020820190508181036000830152610cef81610beb565b9050919050565b6000602082019050610d0b6000830184610c2b565b92915050565b6000604082019050610d266000830185610c2b565b610d336020830184610c51565b9392505050565b6000606082019050610d4f6000830186610c2b565b610d5c6020830185610c51565b610d696040830184610c2b565b949350505050565b6000602082019050610d866000830184610c51565b92915050565b6000608082019050610da16000830187610c51565b610dae6020830186610c2b565b610dbb6040830185610c2b565b610dc86060830184610c2b565b95945050505050565b600082825260208201905092915050565b6000610ded82610ef5565b9150610df883610ef5565b9250827fffffffffffffffffffffffffffffffffffffffffffffffffffffffffffffffff03821115610e2d57610e2c610f90565b5b828201905092915050565b6000610e4382610ef5565b9150610e4e83610ef5565b925082610e5e57610e5d610fbf565b5b828204905092915050565b6000610e7482610ef5565b9150610e7f83610ef5565b9250817fffffffffffffffffffffffffffffffffffffffffffffffffffffffffffffffff0483118215151615610eb857610eb7610f90565b5b828202905092915050565b6000610ece82610ed5565b9050919050565b600073ffffffffffffffffffffffffffffffffffffffff82169050919050565b6000819050919050565b600060ff82169050919050565b6000610f1782610ef5565b91507fffffffffffffffffffffffffffffffffffffffffffffffffffffffffffffffff821415610f4a57610f49610f90565b5b600182019050919050565b6000819050919050565b6000610f6a82610ef5565b9150610f7583610ef5565b925082610f8557610f84610fbf565b5b828206905092915050565b7f4e487b7100000000000000000000000000000000000000000000000000000000600052601160045260246000fd5b7f4e487b7100000000000000000000000000000000000000000000000000000000600052601260045260246000fd5b610ff781610ec3565b811461100257600080fd5b50565b61100e81610ef5565b811461101957600080fd5b50565b61102581610eff565b811461103057600080fd5b5056fea26469706673582212207ae41d6c2a08129788ce25824abbddd9972d18d969306e05c8287056d00f7d0b64736f6c63430008000033",
  "immutableReferences": {},
  "source": "// SPDX-License-Identifier: MIT\npragma solidity 0.8.0;\n\ncontract Game {\n    struct Bet {\n        uint256 amount;\n        uint8 number;\n    }\n\n    mapping(address => Bet) public bets;\n    address[] public playerList; \n    uint8 public luckyNumber;\n    uint256 public totalBetAmount = 0;\n    address public owner;\n    uint noOfbets=0;\n\n    event NewBet(address indexed player, uint256 amount, uint8 number,uint noOfbets);\n    event GameResult(uint8 luckyNumber, uint256 totalBetAmount, uint256 winners, uint256 share);\n    event GameStats(uint256[4] betStats);\n\n    modifier onlyOwner() {\n        require(msg.sender == owner, \"Not the contract owner\");\n        _;\n    }\n\n    constructor() {\n        owner = msg.sender; \n    }\n\n    function addBet(uint8 _number) external payable {\n        require(bets[msg.sender].amount == 0, \"You have already placed a bet\");\n\n        bets[msg.sender] = Bet(msg.value, _number);\n        playerList.push(msg.sender); \n        totalBetAmount += msg.value;\n        noOfbets++;\n\n        emit NewBet(msg.sender, msg.value, _number,noOfbets);\n    }\n\n   function generateNumber() external {\n\n    uint256 nonce = block.timestamp; \n    luckyNumber = uint8(uint256(keccak256(abi.encodePacked(nonce))) % 4 + 1);\n    uint256 winners = 0;\n\n    \n    for (uint256 i = 0; i < playerList.length; i++) {\n        if (luckyNumber == bets[playerList[i]].number) {\n            winners++;\n        }\n    }\n\n    uint256 share = 0;\n    if (winners > 0) {\n        uint256 payout = (totalBetAmount * 90) / 100;\n        share = payout / winners;\n\n        for (uint256 i = 0; i < playerList.length; i++) {\n            if (luckyNumber == bets[playerList[i]].number) {\n                payable(playerList[i]).transfer(share);\n            }\n        }\n    }\n\n    emit GameResult(luckyNumber, totalBetAmount, winners, share);\n    resetGame();\n}\n\n\n    function resetGame() private {\n        for (uint256 i = 0; i < playerList.length; i++) {\n            delete bets[playerList[i]];\n        }\n        delete playerList; \n        totalBetAmount = 0;\n        luckyNumber = 0;\n        noOfbets = 0;\n    }\n\n    function withdraw() external onlyOwner {\n        uint256 balance = address(this).balance;\n        require(balance > 0, \"No funds to withdraw\");\n        payable(owner).transfer(balance);\n    }\n}\n",
  "sourcePath": "/home/athiljeeva/Documents/RandomWins-DAPP/contracts/Game.sol",
  "compiler": {
    "name": "solc",
    "version": "0.8.0+commit.c7dfd78e.Emscripten.clang"
  },
  "schemaVersion": "3.4.16",
  "updatedAt": "2024-10-20T06:14:49.330Z",
  "networkType": "ethereum",
  "devdoc": {
    "kind": "dev",
    "methods": {},
    "version": 1
  },
  "userdoc": {
    "kind": "user",
    "methods": {},
    "version": 1
  }
}